:020000040800F2
:10000000A817002095320008B1310008B33100086C
:10001000B5310008B7310008B93100080000000010
:10002000000000000000000000000000BB310008DC
:10003000BD31000800000000BF310008C1310008D8
:10004000AD320008B1320008B5320008B9320008FC
:10005000BD320008C1320008C5320008C9320008AC
:10006000CD320008D1320008D5320008D93200085C
:10007000DD320008E1320008E5320008E93200080C
:10008000ED320008F1320008F5320008F9320008BC
:10009000C5310008FD3200080133000805330008AF
:1000A000093300080D330008113300081533000828
:1000B000193300081D3300082133000825330008D8
:1000C000293300082D330008313300083533000888
:1000D00039330008CB3100083D33000841330008B4
:1000E00045330008493300084D3300080EB419E0C9
:1000F000B0F8401041F43F410AE3B0F8402044F228
:10010000FF0109E3002070470EB4012120F8401FD1
:10011000002202800023838000210182028842F4B1
:100120003F420280002003B0704700002DE9F04FED
:100130000B4602461C7832F82460DD7848F68F11B1
:1001400000200E40032D0CD8DFE805F002080C0556
:1001500046F4007606E046F4C06603E046F48066A6
:1001600000E0012048F280052E4322F8246048F682
:100170008F7619780C4632F8248006EA080739434E
:10018000294322F824104BF68F78197B93F800A0AE
:1001900000294CF2800C48F6BF7748F2C0095DD1C7
:1001A000D9884FF6FE7404EA010B59780029B2F899
:1001B000501016D0891801EB0A1101F5806AAAF8CF
:1001C00000B000F0CFF801D500F0D9F81978DB784D
:1001D000012B32F8213000F092801F4087F0200779
:1001E0008EE0891801EB0A1101F5816AAAF800B0C6
:1001F000B2F850108C18197804EB011E19690EF230
:100200000C4E69B9BEF8004048F2FF310C40AEF820
:100210000040BEF8007047F40047AEF8007011E0EF
:100220003F2905D24C08C90748BF641CA10207E05A
:100230004C0911F01F0F08BF641EA10241F40041D8
:10024000AEF80010197832F82140640401D500F0AE
:100250008EF800F081F883F4405378E032F82A10E9
:10026000314041F4014141F0800122F82A10B2F8F6
:1002700050401978B3F808A0A41804EB011404F551
:1002800080644FF6FE7101EA0A0AA4F800A0B2F8F1
:1002900050101C78891801EB041101F5816E598901
:1002A0004FF6FE742140AEF8001059781C780029F2
:1002B00032F8241026D1490406D532F824103140F2
:1002C0004CEA010C22F824C000F04CF806D532F8B4
:1002D0002140344049EA040422F82140197800F012
:1002E0004EF8197832F8214008EA040484F44054A6
:1002F00045EA040822F82180197832F821301F409D
:100300003D4325E0490406D532F8241031404CEA3B
:10031000010122F8241000F025F806D532F821401A
:10032000344049EA040922F82190197800F01FF8B6
:10033000DC781978012C32F821401ABF274087F069
:10034000200727402F4322F8217000F005F81D43B5
:1003500022F82150BDE8F08F197832F8213008EAF0
:1003600003037047197832F821406406704732F869
:10037000214026404CEA060622F82160704732F8F8
:100380002140264049EA060622F8216070472DE9FF
:10039000F041024691F800C048780B7B4BF68F7E07
:1003A0004CF2800448F2800848F6BF7548F2C00657
:1003B00048F68F77ABB9002832F82C0008D04006F9
:1003C00036D532F82C0007403E4322F82C602FE04F
:1003D000400458D532F82C0007403C4322F82C400A
:1003E00051E0002832F82C002BD1400405D532F81A
:1003F0002C003840044322F82C40087832F8203092
:100400005B0605D532F820303B40334322F82030DC
:10041000087832F820301F403E4322F820600878E8
:1004200032F820300EEA030348EA030E22F820E0F7
:10043000087832F820100D4048EA050822F820809C
:100440002AE0400405D532F82C003840204322F839
:100450002C00087832F820305B0605D532F82030C1
:100460003B401E4322F82060087832F820301F40BD
:100470003C4322F82040087832F820301D4048EAFA
:10048000050522F82050087832F820100EEA010104
:1004900048EA010E22F820E00020BDE8F0812DE9B5
:1004A000F8430D4604466B78A8692969012B48F288
:1004B00080084AD1814239BF0E46801B0646002083
:1004C000A861287B40B9EA8800F0B2F800F0B4F8DF
:1004D00007F204473E802FE02878010134F820001D
:1004E0004206B4F8500006D50719CF1907F20C4799
:1004F0003E806A8905E00719CF1907F204473E805C
:100500002A8900F095F8687848F68F7140B9287804
:1005100034F82020114041F4004141F0C00109E0CD
:10052000012809D1287834F82020114041F44041B5
:1005300041F0800124F82010297834F8212048F671
:10054000BF70024082F030026BE0814232BF401A3D
:10055000014600202A7BA861002A4FEA511C01F0C5
:1005600001004FEA510E27D023BBB4F850302A784F
:100570001B1903EB021303F2044359B91E8848F216
:10058000FF3216401E80B3F8009049F40049A3F8EA
:1005900000900FE03F2904D2724600B1521C920233
:1005A00007E0624611F01F0F08BF521E920242F48C
:1005B00000421A806A782ABBB4F8502017192A78AA
:1005C00007EB021707F20C4749B9398848F2FF30A8
:1005D000014039803A8842F400423A8019E03F29CC
:1005E00005D208B10EF1010E4FEA8E2008E011F09D
:1005F0001F0F08BFACF1010C4FEA8C2040F4004003
:10060000388006E0012A04D100F016F807F20C4702
:1006100039804BF68F70297834F82120024082F41B
:10062000405248EA020824F821800020BDE8F28305
:100630006969B3B2204674E0B4F85000071928780D
:1006400007EB0017704710B50A78497830F8224058
:10065000002948F2800305D048F6BF710C4084F0B1
:10066000100404E04BF68F710C4084F48054234353
:1006700020F82230002010BD30B50A7B002A36D188
:100680004A780C78002A30F8242048F2800348F693
:100690008F7516D0520608D530F82420154045F441
:1006A000004545F0C00520F82450CA78012A1ED024
:1006B0000A7830F8224048F6BF710C4084F02004DC
:1006C00012E0520408D530F82420154045F4404586
:1006D00045F0800520F824500A7830F822404BF687
:1006E0008F710C4084F44054234320F822300020C2
:1006F00030BD11B98021A0F84C10002070470020B7
:10070000704700207047B0F84400704700207047E1
:10071000A0F84010002070470A40A0F840200020B8
:10072000704710B500EB42005B1C00F580605B0871
:1007300007E00A784C7842EA0422891C20F8042B4E
:100740005B1EF6D110BD10B500EB420000F58060D5
:100750005A0806E030F8044B0C70240A4C70891CCF
:10076000521EF7D1DA0744BF0088087010BD30B5BB
:10077000040085B049D004F50A75687820B90021D5
:100780002970204600F02AFB032068702068FFF7DC
:10079000B4FC83B000F045F80EBC2068FFF7A6FC5F
:1007A00088BB20680021FFF7ADFC00200DE004EBC2
:1007B000401128310870C88101220023401C4A7072
:1007C000CB700B614B618B61C0B261688842EED324
:1007D000002000220CE004EB401101F5947100238D
:1007E00008704A70401CCB700A614B618A61C0B2CC
:1007F00061688842EFD383B000F013F80EBC206824
:10080000FFF782FC18B102206870012007E084F82D
:100810002400012169702068FFF773FF002005B0F4
:1008200030BD211D6846202200F00CBC10B500F040
:10083000F5F901D1022010BD00F0E5F92068FFF7BD
:100840005EFF2068FFF754FCE4E12DE9F047054620
:1008500000F0D6F9000479D400F0D2F940050CD5A7
:1008600000F0C1F94FF6FF3000F0C6F9284600F05D
:10087000E8FA0021284600F0D6F900F0C1F940045A
:1008800005D500F0B0F94BF6FF7000F0B5F900F0B7
:10089000B7F9800405D500F0A6F94DF6FF7000F019
:1008A000ABF900F0ADF9C00414D52968B1F84020C7
:1008B0004FF6FB700240A1F840204FF6F770296810
:1008C000B1F840200240A1F84020284600F0D9FAB3
:1008D00000F08DF900F094F900051CD52868B0F8F7
:1008E000401041F00801A0F840104FF2FF7000F0F6
:1008F0007AF900F081F92868B0F8401041F004015D
:10090000A0F8401000F07CF9C00401D500F06FF9A8
:10091000284600F0A8FA00F073F9800508D500F029
:1009200062F94FF6FF5000F067F9284600F085FAAB
:1009300000F066F9C00505D500F055F94FF6FF60E7
:1009400000F05AF9BDE8F08700F070FA286800F16D
:1009500044010A8813047FF57FAF0A8812F00F0460
:1009600040F68F7648F60F7940F09C80D2062DD461
:10097000018809EA0101024641F40049A2F8009009
:1009800005F124042868B0F85010227901EBC20167
:1009900000EB410000F204400088A169C0F30900A7
:1009A00020620844A0610021284600F03FFA207828
:1009B0000028CBD0E0690028C8D12178286841F010
:1009C0008001A0F84C1000212170BFE7024605F518
:1009D00094741288130514D5898900F0FBF8E28815
:1009E000C3F30903E36105F50C71FFF7ACFE28685A
:1009F00001880E4046F080060680284600F008FA7E
:100A0000A4E71004A2D529680A881640084646F0D3
:100A1000800606802868B0F8501000F0DBF8C3F3B9
:100A20000903002BE3611CBF616900290AD0E28839
:100A3000FFF789FE6069E169014461612846002190
:100A400000F0ECF92968B1F850004118206901F272
:100A50000C4148B9088848F2FF32104008800B88E2
:100A600043F400430B8010E03F2805D24208C00742
:100A700048BF521C900207E0420910F01F0F08BF48
:100A8000521E900240F400400880286801884BF60E
:100A90008F72114081F4405141F4004141F08001D6
:100AA000018053E730F824A05FEA0A4005EB4418C0
:100AB00062D5296831F82400064046F0800621F806
:100AC000246008F594762868317B79B9B0F8501025
:100AD000337801EBC30100EB410200F074F837D02A
:100AE000F28871693B46FFF72EFE31E0317803460C
:100AF0008C4633F82CE05FEA4E430ED5B0F850C078
:100B00000CEBC10100EB410202F204421788C7F36B
:100B10000907002F0FD0328909E0B0F8503003EBFD
:100B2000C10300EB430200F04EF804D072893B464B
:100B30007169FFF708FE2968307831F8202048F6FF
:100B40008F731A4042F4004242F0C00221F8202084
:100B5000F1697918F1617269D2197261B3693BB1B7
:100B600031698F4204D33178284600F0A6F803E0BB
:100B70003178284600F052F95FEA0A6022D52968E8
:100B800031F8242009EA020242F4004908F1280061
:100B900021F824902A680178B2F8503003EBC103A1
:100BA00002EB430202F2044212884369C2F30902D3
:100BB000C2611A4483694261002B28463FF4C4AEE7
:100BC00000F091F8C2E602F20C421788C7F3090759
:100BD000002F7047227801EBC20100EB410303F2C2
:100BE0000C431B8870472968B1F844207047296876
:100BF000B1F844204EF6FF700240A1F8442070473F
:100C00002868FFF780BD012084F8280201212046D2
:100C100000F0CFB9002084F8280210BD044694F8F3
:100C200028020128704710B5FFF7F8FF01D1022014
:100C300010BD00F006F884F824102068FFF759FD75
:100C4000E8E7012084F82802704738B5054601F02E
:100C5000070005EB40100C0647BF00F128040120F7
:100C600000F594740020607001F00701217022618A
:100C7000E370607808B12178E181022B04BF002085
:100C8000207195F82802012801D1022032BD0120EF
:100C900085F8280221462868FFF748FA67E010B572
:100CA000044600F086F800F07DF801D1022010BD66
:100CB00000F08EF8FFF76BFBACE710B501F007040E
:100CC00000EB441404F5947401F007016261A36120
:100CD0000022E261627014E001F0070100EB4110B4
:100CE000D0F84401704710B501F0070400EB44143C
:100CF00028346261A3610022012301F00701E2614F
:100D00006370217021460068FFF7C9FB002010BD09
:100D100038B505460C46696804F00700814201D2E7
:100D2000012032BD210605D505EB401000F1280158
:100D3000012204E005EB441000F5947100224A7092
:100D40000120887004F007040C7095F8280201282F
:100D500001D1022032BD012085F828022868FFF762
:100D600072FC24B9286805F50C71FFF7CFFC002050
:100D700085F8280232BD10B5044601F00F03626801
:100D80009A4201D2012010BD00F013F800238370B5
:100D900000F008F801D1022010BD00F019F8FFF7AB
:100DA0006BFC37E701F00701017094F82812012964
:100DB000704701F007000A0604EB401003D5283005
:100DC00001234370704700F5947000224270704711
:100DD000012284F8282201462068704700686F4984
:100DE000884200D0704780B56D48026842F4000226
:100DF00002600022006800F40000009000210098CA
:100E0000142000F045F9BDE80240142000F05DB95F
:100E100000F50C71D0F8680200F0B2B900EB411295
:100E2000D0F86802D2F83C2100F0D4B900EB4112AE
:100E3000D0F86802D26B00F00EBAD0F8680200F069
:100E40009EBA10B50446A068022818BF00F0E0FB67
:100E5000D4F86802012100F07EFAD4F86802BDE8F7
:100E6000104000F04FBA10B50446D4F8680200F004
:100E700075FAA06920B14B48016841F00601016094
:100E800010BDD0F8680200F071BA10B504464648AB
:100E90004249C0F86842C4F8C00201600822022337
:100EA0000021426083608161C1610162FFF75FFCE4
:100EB00008B100F0ADFBD4F8C002182300220021D5
:100EC00000F0A8FBD4F8C00258230022802100F0D3
:100ED000A1FBD4F8C002C0230022812100F09AFBBC
:100EE000D4F8C0024FF488730022012100F092FB75
:100EF000D4F8C0024FF480730022822100F08AFBF4
:100F0000002010BD80B5D0F8C002FFF78FFCBDE80F
:100F100002404FE010B51C461346D0F8C0022246EE
:100F2000FFF793FEBDE8104044E080B5D0F8C00262
:100F3000FFF7B5FEEBE780B5D0F8C002FFF7E8FE9B
:100F4000E5E780B5D0F8C002FFF715FFDFE7D0F87E
:100F5000C00201F07F02090600EB421002D590F8B2
:100F60002A00704790F82A01704780B5D0F8C00277
:100F7000FFF759FECBE780B5D0F8C002FFF7B3FE0C
:100F8000C5E780B5D0F8C002FFF797FEBFE7D0F8FD
:100F9000C002FFF7A1BE054870470000005C00409A
:100FA0001C10024010ED00E0440C0020B00E0020A8
:100FB000704770470146002021B1022901D101206C
:100FC000704702207047F0B4024610689568131805
:100FD000506803EB5004C00748BF4D44A3422DD0D6
:100FE00013F8016B16F0030004BF13F8010BC01CCB
:100FF00031090F2907D113F8011B0F3103E013F852
:10100000017B05F8017B401EF9D10029E6D013F8D9
:10101000010BC6F38106032E08BF13F8016B00EB2A
:101020000620404228440026B71E8F421EBF10F8FB
:10103000017B05F8017B761CF6D1CFE7F0BC02F10D
:101040000C0070474AB1000011F8013B521E00F835
:10105000013B1CBF11F8013BF8E770470901020092
:1010600002D4284881547047274B02F00F021A44DB
:1010700002F8041C7047254B19684FF6FF02000266
:10108000114000F4E06008432149084318607047AC
:1010900070B51E4B1C68C4F302230124C3F107057D
:1010A000052D2EBF0F2504FA05F56D1E1E1D072EFA
:1010B00034BF0023DB1E2940994004FA03F3BDE846
:1010C00070405B1E1A401143C8E7010007D401229B
:1010D00000F01F010F4B8A40400943F82020704761
:1010E000401EB0F1807F01D3012070470A490B4AAE
:1010F00048600023F02010708B60072008600020FB
:101100007047000000E400E018ED00E00CED00E0A6
:101110000000FA0500E100E010E000E023ED00E04F
:1011200038B508B9022032BD00F52774A3690BB1A8
:101130000025A56101B16161012121700270FFF7F5
:10114000A4FE002032BD0246002011B1C2F8B41244
:1011500070470220704780B5FFF7D4FE002002BD23
:1011600010B5D0F8B42202241AB11268904700B921
:101170000024204610BD80B5D0F8B42253680AE19F
:1011800038B5044604F52A75284600F04AFC04F5F3
:10119000257001210160428B017D426011F01F002A
:1011A00003D002280BD005D30EE02946204600F0DC
:1011B0004BFA0DE02946204600F07CFB08E029466A
:1011C000204600F09DFB03E001F0800100F040F8B4
:1011D000002032BD38B5044610460A0004F52573D8
:1011E00029D1196803291ED104F5B0714A680D6828
:1011F000AA420BD2AD1A0D60954238BF2A4601466D
:1012000092B2204600F069FC002032BD196A0869DC
:1012100028B1187A032802D1096920468847204658
:1012200000F063FCF0E70529EED1002018600021F2
:1012300000F00EF8E8E71A6A906930B1187A0328CE
:1012400003D1926920469047DEE7022032BD80211B
:101250002046FFF770BE38B504460800134604F573
:10126000257543D12868022833D1226A616A9142E8
:1012700007D2521A2262194692B2204600F01BFC95
:1012800011E0E269B2FBF1F001FB102090B98A4253
:1012900010D3686882420DD200220021204600F05F
:1012A0000AFC002068600023002200212046FFF78E
:1012B00068FE14E0296AC86828B1287A032802D198
:1012C000C96820468847FFF7C2FF204600F014FC9B
:1012D00005E0042818BF002801D1FFF7B8FF287BDC
:1012E000012804BF00212973002032BD2A6A5069F9
:1012F00030B1287A032803D1526920469047F3E79A
:10130000022032BD38B50446402300220021FFF7F9
:1013100001FE04F5AC70012140220160C26040234F
:10132000002280212046FFF7F5FD0120402104F531
:101330002572A06161621072002111606160002558
:10134000506A156128B1126A61685368C9B22046B3
:101350009847002032BD01740020704700F52770C7
:1013600004220178417002700020704700F5277058
:101370000178042904BF417801700020704780B5CE
:1013800000F527710A78032A03D18969C96901B177
:101390008847002002BD9847002002BD30B585B0C7
:1013A00000F0B2FB00F0F0F86846002100220023B4
:1013B000002480E81E006248624C0168624D41F0E2
:1013C00010010160026802F01002049204990268A0
:1013D00042F020020260036803F0200304930499A2
:1013E000026842F004020260036803F004030493FD
:1013F0000499026842F0080202600122006800F0CD
:1014000008000490FA210498204600F05FFC0022B6
:101410004FF44061204600F059FC01224FF4004196
:10142000284600F053FC4FF4005000F09FF8694646
:10143000464800F07BFB012100910322019269469E
:10144000284600F073FB40F6FA4100F094F820467D
:1014500000F06CFB4FF4704000F088F820466946BD
:1014600000F064FB4FF4807000F080F82846694675
:1014700000F05CFB4FF4004100F07DF8284600F0DE
:1014800055FB334C334804F1840503212864696417
:1014900040F6C410A86404F1C40000F035FC08B1A3
:1014A00000F0B6F8684600210022002380E80E0014
:1014B0004FF46020E0610120274920612160A26093
:1014C000227322756260204600F040FC08B100F0F3
:1014D0009FF800200121009001910290694620466A
:1014E00000F0AEFC08B100F093F81C481C492063E2
:1014F00061630020A06300214FF480402064E16319
:101500006164A164E164216504F1300000F046FDEE
:1015100008B100F07DF813481349286000220C2020
:1015200068616960AA60EA602A61AA61EA61284686
:1015300000F0D4FD08B100F06BF800F063FFFEE7A7
:1015400018100240000C014000080140001001404A
:10155000D012002000300040002401400054004020
:10156000A08601000038014090D0030000210090C7
:101570000191029170470091012201920021029194
:10158000032203926946704718B593B0282109A831
:1015900000F062FF142104A800F05EFF69460020FD
:1015A00000220023002481E81D004FF48031012334
:1015B0000A910D930F93119109220B9002234FF47E
:1015C000E01109921093129109A800F049FF08B1A7
:1015D00000F01EF8022105910F204FF48061049065
:1015E000079106940894022104A801F0C3F808B1F9
:1015F00000F00EF8122000904FF400410291039485
:10160000684601F08DF908B100F002F814B010BD81
:1016100072B6FEE710B50C0605D501F0070100EB28
:101620004110283003E000EB411101F594701AB924
:1016300000210173C38004E0038101211B0C0173AD
:101640004381002010BD00002DE9FC410E460546F7
:10165000307810F0600005F5277708D0202818BFF3
:10166000402824D1BA69936828469847ACE071783D
:1016700009291CD8DFE811F0FD00120188000C01D7
:1016800088008D000A008800E800AB000022ADF859
:1016900000207088010A012970D0022961D0032935
:1016A0002CD0062922D0072904BF287C00286BD122
:1016B000B9690A6B6846904707214170BDF8001070
:1016C00081B1F188002910D0BDF80010F288914254
:1016D00088BF1146ADF800100146BDF8002028462D
:1016E00000F0E1F9F08800286ED19FE0287C002806
:1016F0004AD1B9694A6B68469047DFE7C0B205280E
:1017000042D8DFE800F0272019120B0378698269BC
:10171000002A39D0287C69469047CFE7786942692A
:1017200092B3287C69469047C8E7786902695AB342
:10173000287C69469047C1E77869C26822B3287C53
:1017400069469047BAE778698268EAB1287C6946B9
:101750009047B3E778694268B2B1287C6946904700
:10176000ACE7287CB9690028684604D1896A8847B3
:1017700002224270A2E7C96A8847F9E77A69287CA1
:1017800013686946984799E73146284600F05DF9A5
:101790001AE0B088002804BFF0880028F4D17488CB
:1017A000802CF1D23878032804F07F04ECD0BC7090
:1017B00021462846FFF7D9FB284600F096F9002C71
:1017C0000CBF0120022038700020BDE8F681DFF850
:1017D000E080708888F8000098F8004021460229CF
:1017E000D2DA3878022818D0032823D134B902205D
:1017F000387069602846FFF7BEFC17E069688C42C4
:1018000014D0C9B22846FFF7B6FC6C6021462846C2
:10181000FFF7A6FC022809D1B6E73CB16C600320B3
:1018200038702846FFF79CFC0228ADD0284600F00F
:101830005CF9C9E73146284600F007F998F800102E
:101840002846FFF798FCBFE7F08801289CD139783B
:10185000491E012907D9891E96D10122291D284632
:1018600000F021F9B0E70020A860012205F108018D
:10187000F5E73878401E022886D8F288022A83D1FC
:10188000B868012100B10321E96005F10C01E6E728
:101890007088012898D10121B960C7E73878401EC7
:1018A0000228ECD87288012A8ED10020B860BDE7EA
:1018B000A013002038B50D460446287810F06000CB
:1018C0001CBF2028402816D104F527721078401E2E
:1018D000022810D82B79022B0DDA926993682046E2
:1018E00098470146E888002808BF002906D120460D
:1018F00000F0FBF802E0204600F0A7F8002032BD1F
:10190000F8B50A780446087912F0600504F52773E3
:1019100008D0202D18BF402D66D19A6993682046C3
:10192000984764E002F06002202A05D19A69936822
:101930002046BDE8F44018474A7882B3012A11D006
:10194000032A51D11B78022B12D0032B4CD14A8889
:101950000ABB002818BF80281DD0C988D9B900F05B
:101960005CF818E01A78022A02D0032A0AD03BE079
:10197000002818BF802837D000F04FF8802100F0F1
:101980004DF834E04A8892BB10F07F0103D0014645
:101990002046FFF7D6FA204600F0A7F827E01426E5
:1019A00000F07F021B787243A718022B07F5AA7577
:1019B00000F0800202D0032B0FD015E0002818BFE2
:1019C000802811D10AB107F11405002028600222F5
:1019D0002946204600F067F809E000F00F035E4357
:1019E000A31932B19A696AB9204600F02EF8002096
:1019F000F2BDD3F85821002AF6D0002818BF80285D
:101A000003D1E2E707F11405F7E701462046FFF7A7
:101A10009EFA0028DAD00120D8E701462046FFF7D9
:101A20008ABA0A7802704B7843708A78CB7802EBD6
:101A3000032242804B790A7902EB032282808A7961
:101A4000C97902EB0122C280704710B5044680219B
:101A5000FFF771FA2046BDE810400021FFF76BBA8E
:101A600000280B4600D1704770B50146002400E005
:101A7000641C11F8015B002DFAD12406E40DA41CAE
:101A800014801178197003225A70022207E010F8AE
:101A9000011BD4B2521C1955D6B2521C9D55017867
:101AA0000029F4D170BD80B513460222C0F89422FB
:101AB000C361036201E080B513460A460021FFF7C7
:101AC0005AFA002002BD80B513460322C0F89422C2
:101AD00000F5AE721360536001E080B513460A460C
:101AE0000021FFF74EFA002002BD80B50421C0F8A6
:101AF000941200230022E1E780B50521C0F894127A
:101B000000230022ECE7000080B50748016841F09F
:101B1000100101600320FFF7AEFA0F2000F074FF00
:101B200000F092FF002002BD002002402DE9F8479E
:101B30004FF0000E0024674A674BDFF8A0814FF09A
:101B40000F0982460DE0D7683840D06007E0C2F840
:101B500008C04D68AD02F6D5D0680743D7600EF1D6
:101B6000010E0F6837FA0EF000F0AE80012000FA87
:101B70000EFC0CEA07076745F1D1486838B3012825
:101B80001AD002281DD003282ED0112816D01228D2
:101B90001AD0534DA8421CBF524DA84217D0524DE7
:101BA000A8421CBF514DA84211D0514DA8421CBFA4
:101BB000504DA8420BD018E0CC6816E0CC68241D2C
:101BC00013E0CC68083410E0CC680C340DE0886871
:101BD00008B9042409E0012819BF0824CAF814C070
:101BE0000824CAF810C000E00024B7F5807F03D2B3
:101BF00050464FEA8E0C05E0AEF108050AF10400EC
:101C00004FEA850C056809FA0CF6B54304FA0CF6A0
:101C100046EA050CC0F800C04868C0009FD5D8F857
:101C2000000040F00100C8F80000D8F8005005F0AE
:101C3000010500954FEA8E0500984FEA9E0053F883
:101C4000206005F00C0C09FA0CF526EA05052A4E71
:101C5000B24508BF00260ED0284EB24508BF012667
:101C600009D0274EB24508BF022604D0254EB24502
:101C70000CBF0326042606FA0CF646EA050C43F8C8
:101C800020C0F8434D68ED0306D5D2F800C047EAFE
:101C90000C0CC2F800C002E01568054015604D68E4
:101CA000D2F804C0AD034CBF47EA0C0C00EA0C0CA0
:101CB000C2F804C04D68D2F808C0ED024CBF47EA34
:101CC0000C0C00EA0C0C42E7BDE8F18702B90904EC
:101CD00001617047000401400800014018100240F3
:101CE000000011100000121000002110000022104E
:101CF000000031100000321000080140000C0140CB
:101D0000001001400014014038B5040001D1012049
:101D100032BD20684CF6CC41016045F2555202605C
:101D200063684360A168816000F04CFF054621684C
:101D3000C86830B100F046FF401B3128F7D30320BC
:101D400032BD4AF6AA200860002032BDF8B504462C
:101D500000270026002C71D004F12405686828B9FA
:101D60000021A9602870204600F084FE204600F083
:101D7000F3F86968CA065DD401005BD1696821F493
:101D8000885141F0020169606368E269217B134375
:101D9000A26843EA4103B2F5807F14BF012A4FF4E1
:101DA0008077227D012A0FD131B9A169491E47EA06
:101DB000413747F4006707E0696841F02001696036
:101DC000A96841F00101A96021684A6822F46942CA
:101DD00017434F602268DFF8681197680F401F4370
:101DE0009760A168B1F5807F18BF012902D12669EB
:101DF000761E36052168CA6A22F470021643CE6246
:101E00002468DFF84011A2680A409A4207D10023F3
:101E1000AB6001216A6861F301026A60F2BD686823
:101E200020F0020040F010006860A86840F0010057
:101E3000A86003E0686840F0100068600120F2BD0F
:101E4000F8B5002300930A4600F1240300211C7812
:101E5000012C01D10220F2BD01241C701F275468FF
:101E600015680668072C08D2641E04EB8404D6F8B3
:101E700034C000F05EF8756312E00D2C08D2E41F48
:101E800004EB8404D6F830C000F053F8356307E063
:101E90000D3C04EB8404D6F82CC000F04AF8F5623F
:101EA00007271668946805680A2E08D30A3E06EBD1
:101EB0004606D5F80CC000F036F8EC6006E006EBFC
:101EC0004606D5F810C000F02EF82C611468102CCE
:101ED00018BF112C23D100681C4CA0421AD11C48F9
:101EE00005682C021BD4056845F4000505601068E0
:101EF000102814D1144A174D1468B4FBF5F50A20C4
:101F000045430095009800281EBF0098401E009091
:101F1000F8D104E00121586840F02000586000200A
:101F200018700846F2BDB7402CEA0707B4403C439E
:101F30007047A7402CEA0707A5403D4370470000C3
:101F4000FDF7E1FFFE0E1FFF0C0000200024014002
:101F50000824014040420F0038B5044620688168DB
:101F6000CA0719D5816849084900816000F02AFE36
:101F7000054620688168C8070ED500F023FE401B87
:101F80000328F6D3A06A40F01000A062E06A40F097
:101F90000100E062012032BD002032BDF8B504002E
:101FA0001BD004F13C05697821B900202870204637
:101FB00000F085FD242169702068026852085200F3
:101FC000026000F078FC01466068DFF8F82090427B
:101FD00005D2DFF8F430994205D20120F2BDDFF8D6
:101FE000EC008142F9D32068DFF8E4304668B1FBA9
:101FF000F3F3B60943EA861646602668376A6068D6
:10200000904206D34FF4967043434FF47A70B3FB7B
:10201000F0F35B1CBF0943EA87133362491E236850
:10202000DE696768974206D27F0000F044F8042911
:1020300013D2042111E0A06820B907EB470700F094
:102040003AF805E01920474300F035F841F48041A3
:1020500008050CBF012141F40041DFF8780006407B
:102060000E43DE6122681368E169206A23F0C00331
:102070000B43034313602268DFF85C009368216917
:102080000340E0680B43034393602268D368A1696F
:1020900060691B0A41EA03230343D3602068016897
:1020A00041F0010101600020686020216970206317
:1020B0000021A970F2BDB1FBF7F1491CC1F30B017E
:1020C00070470000A186010080841E0000093D00C9
:1020D00040420F000030FFFF007CFFFF38B50400D6
:1020E00001D1012032BD00F023F808B900F024F836
:1020F00000F014F800F025F8FFE7416100F001F866
:1021000032BD2068C16841F40051C16000206860A0
:10211000202169702020A87000207047242068705A
:102120002068C16821F40051C160204600F027B941
:1021300004F138056878704700212970204600F0C6
:10214000F3BC2068016921F4904101612068416974
:1021500021F02A017047416921F040014161606B23
:10216000704770B5044620680268014612F00F0FF0
:10217000CD68436905F0200002F0200107D1002955
:1021800018BF00285AD02046BDE87040AEE0DE07F8
:1021900002D415F4907F51D0D60705D5ED0503D5AF
:1021A000E66B46F00106E663550705D5DE0703D565
:1021B000E56B45F00205E563950705D5DE0703D518
:1021C000E56B45F00405E563120705D5DB0703D58C
:1021D000E26B42F00802E263E26B002A6ED0002953
:1021E0001EBF0028204600F081F820684069E16B9E
:1021F0000A0701D440061BD5204600F060F820688D
:1022000041694A060FD5FFF7A6FF60B10FF2CD0175
:102210004163606B00F0DCFC00284FD0606B416BC9
:10222000BDE8704008472046BDE8704000F02CBD76
:10223000204600F029FD0020E06370BD10062CD57B
:1022400029062AD594F83900212837D1A068B0F59D
:10225000805F206A0CD101882268C1F308015160B7
:1022600020690028206A0CBF811C411C216204E007
:10227000411C2162226800785060E08C401EE0849E
:1022800080B2D8B92068C16821F08001C16020689F
:10229000C16841F04001C16070BD50060ED56906AD
:1022A0000CD52068C16821F04001C1602046202182
:1022B00084F83910BDE8704000F0E7BC70BD0168DB
:1022C000CA6822F49072CA6001684A6952085200D2
:1022D0004A61202180F83A1070470000406A0021CE
:1022E000C1850022C28400F0CFBC000010B590F878
:1022F0003A10222941D18168B1F5805F2AD1826AE2
:102300000169134601BB04686168C1F30801921CAE
:1023100082621980C18D491EC18589B259BB01688D
:10232000CA6822F02002CA600168CA6822F480727A
:10233000CA6001684A69520852004A61202180F847
:102340003A1000F0A3FC16E00168496801F0FF01B3
:10235000521CDDE701690029816A05D14A1C8262AD
:1023600003685A680A70D5E74A1C826203685A6893
:1023700002F07F02F6E7002010BD022010BD70B50C
:102380000446192622681169E06821F4405101438E
:1023900011616FF06305D3681849A0680B4021698B
:1023A000034360690B430343D3605169A06921F47F
:1023B0004071014312485161824202D100F083FA18
:1023C00001E000F078FA464360688000B6FBF0F068
:1023D0006421B0FBF1F105FB01052D0132356420CC
:1023E000B5FBF0F000F0F00202EB0112216800F002
:1023F0000F008018886070BD00000000F3E9FFFF47
:102400000038014010B5104C104900222046FEF75C
:1024100087FE08B1FFF7FCF80D492046FEF793FE52
:1024200008B1FFF7F5F80B49204600F055FD08B15B
:10243000FFF7EEF82046FEF78EFE18B1BDE810401B
:10244000FFF7E6B810BD00BF800900203001002072
:102450001C00002020010020002200F065BD0000CB
:102460002DE9F843040016D02078DFF87064C10726
:1024700013D5706800F00C00042807D0706800F0D5
:102480000C00082841D17068C1033ED53068810333
:1024900003D56068002800F064812078DFF84C7470
:1024A000810719D5706810F00C0F07D0706800F024
:1024B0000C00082861D17068C1035ED430688107C0
:1024C00003D52069012840F04C813168606921F012
:1024D000F80141EAC00131602178080740F18180AC
:1024E000A069DFF80C14002800F0A68001220A6021
:1024F00000F068FB0546706A810763D400F062FB58
:10250000401B0228F7D903202EE16068B0F5803F18
:1025100004D1306840F48030306014E008B930688D
:102520000AE0B0F5A02F306806D140F4802030607A
:10253000316841F4803105E020F48030306031684A
:1025400021F480213160606858B100F03BFB054602
:1025500030688103A1D400F035FB401B6528F7D318
:10256000D1E700F02FFB05463068810395D500F0D8
:1025700029FB401B6528F7D3C5E72069A8B10121D5
:10258000396000F01FFB05463068810705D400F074
:1025900019FB401B0228F7D9B5E73068616920F0C4
:1025A000F80040EAC100306096E7386000F00AFBAE
:1025B0000546316888078FD500F004FB401B0228D0
:1025C000F7D9A0E7DFF818030168C9084FF47A7259
:1025D000B1FBF2F2009200BF0098411E002800916A
:1025E000F9D1207841076ED5F0690025C10009D4E2
:1025F000F06940F08050F0610125F06900F08050F2
:1026000000900098DFF8EC82D8F80000C10520D4D3
:10261000D8F8000040F48070C8F8000000F0D2FA4A
:102620008146D8F80000C10513D400F0CBFAA0EB26
:1026300009006528F5D366E7086000F0C3FA05468F
:10264000706A8107CDD500F0BDFA401B0228F7D98A
:1026500059E7E068012808D008B9306A09E0052880
:10266000306A06D140F004003062306A40F0010068
:1026700005E0400840003062306A20F0040030621B
:1026800041F28938E06860B100F09CFA8146306A16
:10269000810713D400F096FAA0EB09004045F6D369
:1026A00031E700F08FFA8146306A810706D500F0E5
:1026B00089FAA0EB09004045F6D324E71DB1F06983
:1026C00020F08050F061E06900284CD0716801F082
:1026D0000C01082938D002282AD100F047F8054615
:1026E0003068810105D500F06DFA401B0228F7D94A
:1026F00009E7206AB0F5803F05D17168A06821F430
:102700000031014371607268206A616A22F47412B8
:1027100002430A437260012000F029F80446306841
:10272000810120D400F04EFA001B0228F7D9EAE616
:1027300000F01CF804463068810114D500F042FA1C
:10274000001B0228F7D9DEE601280AD07068226A49
:1027500000F48031914202BF00F47010616A884237
:1027600001D0012000E00020BDE8F283002038669F
:1027700000F028BA2DE9F041040088464ED05E4EA4
:1027800000F077F802D200F06FF847D12068534D7F
:10279000810712D5400703D5696841F4E06169609B
:1027A0002078010703D5686840F460506860696864
:1027B000A06821F0F001014369602178C80725D5A0
:1027C0006068012802D129688A0303E00228296889
:1027D00002D18A0102D421E08A071FD569688908DD
:1027E00040EA8100686000F0EDF9074668686168BA
:1027F00000F00C00B0EB810F08D000F0E3F9C01B33
:1028000041F289318842F1D303202BE0306800F097
:102810000700804504D200F027F801D0012021E014
:102820002078410705D56A68E06822F4E062024337
:102830006A602178080706D56968206921F460512B
:1028400041EAC001696000F019F86A682B49244B1D
:10285000C2F30312895CC84018602348006800F086
:10286000D3F80020BDE8F0813168C90848EAC10109
:102870003160306800F00700404570472049194832
:102880000A6802F00C03082B00D0704710B500BF97
:102890001EA4C2F38343D203E35C08D509685843FE
:1028A0001EA3C1F340415A5CB0FBF2F010BD1846C4
:1028B0001449484310BD0A48114A00681368124978
:1028C000C3F3022206E006480D4A006813680E4969
:1028D000C3F3C222895CC840704700000010024068
:1028E0000C00002000127A00080000200000424284
:1028F0008004424200700040002002402431000861
:102900000410024000093D00A4320008020304053F
:10291000060708090A0B0C0D0E0F1010010200002B
:102920002DE9FC410646354D3078C10750D5A869E0
:102930000024C10009D4A86940F08050A861012496
:10294000A86900F08050009000982D4F3868C105AC
:1029500011D4386840F48070386000F033F9804654
:102960003868C10507D400F02DF9A0EB08006528F0
:10297000F6D303203FE0E86910F440701EBF716891
:1029800001F44071884218D01E49E86901220A60AA
:10299000002320F440700B60E861C0070DD500F003
:1029A00011F90746E869810707D400F00BF9C01B4D
:1029B00041F289318842F5D3DBE7EA69706822F495
:1029C00040720243EA611CB1A86920F08050A861FE
:1029D0003078810705D52A68B06822F44042024366
:1029E0002A603178C80605D52968F06821F480018D
:1029F000014329600020BDE8F68100000410024078
:102A0000007000404004424238B50D4D0D4B2A780D
:102A100004464FF47A711868B1FBF2F2B0FBF2F0A1
:102A2000FEF75EFB50B9102C08D2002221464FF071
:102A3000FF30FEF72DFBAC60002032BD012032BD1F
:102A4000000000200C000020574881B0016841F0D0
:102A500001010160026802F00102009200994268DF
:102A600042F080524260406800F080500090009830
:102A700001B0704718B585B000F050F821684B4898
:102A800081421AD14848016841F400710160032372
:102A9000026802F4007200920099026842F0040297
:102AA00002600F22006800F004000090009901927B
:102AB000029301A93E48FFF739F806B010BD18B5DA
:102AC00085B000F02BF821683A48814224D1364C79
:102AD000216841F0080121604FF44071206800F046
:102AE00008000090122200983348019102920321BD
:102AF000049101A9FFF71AF83048016841F0E0613C
:102B000041F002010160606840F40010606060689C
:102B100000F400100090009806B010BD044610228A
:102B2000002101A800F019BA18B585B0044610229A
:102B30000021684600F011FA21682148814230D115
:102B400019481B4C016841F480410160026802F49D
:102B5000804204920499026842F0040202604FF439
:102B60000071006800F004000490022204980091B3
:102B700001920321039120466946FEF7D7FF4FF4E7
:102B80008060002100900191029120466946FEF785
:102B9000CDFF002200212520FEF77AFA2520FEF73E
:102BA00094FA06B010BD0000181002400024014045
:102BB0000008014000540040000C014004000140A6
:102BC0000038014001484068704700BF0000002005
:102BD00038B590F821200024022A00F1340103D0F6
:102BE0000420486001243EE00268136823F00E03CD
:102BF00013600268DFF8743015686D086D001560A9
:102C000002689A4208BF012222D0DFF864309A425B
:102C100008BF10221CD0DFF85C309A4208BF4FF486
:102C2000807215D0DFF850309A4208BF4FF48052BE
:102C30000ED0DFF848309A4208BF4FF4803207D0F8
:102C4000DFF83C309A420CBF4FF480124FF0807294
:102C5000DFF830301A60012280F8212080F820400F
:102C6000096801B18847204632BD000008000240D3
:102C70001C00024030000240440002405800024064
:102C80006C0002400400024070477047704700002B
:102C9000F8B505460026287C40B94FF4007300F0D3
:102CA0003CF80122EA624FF4007305E0402300F093
:102CB00034F80120E8624023022201212846FEF771
:102CC00029F90120C5F86C01082303228221284636
:102CD000FEF720F90120286405F52E774FF40770E0
:102CE000FEF759F93860040008BF012613D0786850
:102CF0000168884704F501700022026100214161EA
:102D00000268287C00280CBF4FF400734023012187
:102D10002846FEF736F93046F2BD022281212846C8
:102D2000FEF7F8B810B504468121FEF7FEF8002240
:102D3000E26201212046FEF7F8F80020C4F86C0199
:102D400082212046FEF7F1F80021216404F52E745B
:102D5000206838B16068416888472068FEF728F924
:102D600000202060002010BDF8B5044604F527734C
:102D70000D46DE6900218DF80010ADF80210002725
:102D8000297811F0600022D020283AD1EA88C2B117
:102D9000687809060AD51B6AD3F808C03146E047AF
:102DA000EA8831462046FEF77EFE2FE006F50071E8
:102DB0000870E88848703146EA882046FEF783FEAE
:102DC00024E01B6A68789C682946A0471EE0687862
:102DD00020B10A2809D00B2810D012E01978032955
:102DE0000FD102220DF1020104E01878032808D166
:102DF000012269462046FEF756FE07E018780328B0
:102E000004D029462046FEF720FE02273846F2BDB0
:102E1000F8B5044604F52E7002688368CAB1142020
:102E200048432618F06978B103EB41139B6BB0FB64
:102E3000F3F503FB150038B90027F76100230022E2
:102E40002046FEF798F802E00023C2F81432002072
:102E5000F2BD0220F2BD70B500F52E74256805F5AF
:102E60000176FEF794F8B060206838B16268306887
:102E7000D36805F503719847002070BD022070BD2E
:102E800010B500F52E7043680168002B1EBF01F5D8
:102E900000742078FF2804D062789B689847FF2050
:102EA0002070002010BD4321018007487047432156
:102EB00001800648704743210180054870470A2178
:102EC0000180044870470000980000205400002052
:102ED000DC000020100000200246022011B1C2F8E0
:102EE000BC1200207047D0F8B80200F502700160F3
:102EF000826000207047D0F8B802C0F804120020A9
:102F0000704780B5D0F8B81261B1D1F80422017CC5
:102F100000290CBF4FF4007340230121FEF731F864
:102F2000002002BD022002BD00B500BF130096467E
:102F30009446103928BFA0E80C50FAD85FEA417CCB
:102F400028BF0CC048BF40F8042BC90728BF20F891
:102F5000022B48BF00F8012B00BD10B504461046F7
:102F60000A460146204600F003F8204610BD000046
:102F700062F30F2262F31F42401810F0030308D0DF
:102F8000C91A1FD3DB0748BF00F8012D28BF20F85E
:102F9000022D130030B414461546103928BF20E91D
:102FA0003C00FAD8490728BF20E90C0048BF40F888
:102FB000042D890028BF20F8022D48BF00F8012DFC
:102FC00030BC7047C91818BF00F8012DCB0728BFC7
:102FD00000F8012D70470000122008801A48704741
:102FE00004200880194870472DE9104000F028F8A7
:102FF00027A004E02DE9104000F022F82AA0214685
:10300000FEF72EFD204610BD38B51A200880104965
:103010004C68086889680F4D081809D00822A91C57
:1030200000F022F8042205F11201204600F01CF8FD
:10303000284632BD2DE9104000F002F81FA0DEE75F
:103040000A46054C704700004C010020600100203A
:10305000E8F7FF1F64010020D01000202DE9104088
:10306000FFF7EEFF18A0CAE730B500230CE0040F0D
:103070000A2C2CBF3734303401F8134001EB4305E0
:10308000002400016C705B1C9342F0DB30BD00003B
:1030900053544D3332205669727475616C20436FFE
:1030A0006D506F727400000053544D6963726F6508
:1030B0006C656374726F6E696373000043444320F0
:1030C000436F6E666967000043444320496E746530
:1030D000726661636500000010B50E4A0E49106803
:1030E00040F00100106053680C480B4053601468B6
:1030F00004401460116821F4802111604FF41F0115
:10310000506820F4FE00506091604FF00060044A67
:10311000106010BD001002400000FFF8FFFFF6FE37
:1031200008ED00E0000000000000000001020304C0
:103130000607080938B50E4C0E4D002205F58061D2
:103140002046FFF7D0FE29462046FFF7D4FE002098
:1031500032BD002070470020704710B50146044C76
:103160002046FFF7C8FE2046FFF7CBFE002010BD2B
:10317000800900208001002030B4002512E050F8C2
:10318000042BD30744BF4A44521E091F042942F8A6
:10319000045BFAD213468C0744BF15809B1CC907F9
:1031A00048BF1D7050F8041B0029E8D130BC70479F
:1031B000FEE7FEE7FEE7FEE7FEE770477047704771
:1031C00000F00AB80248FDF740BB0248FEF7C9BF4D
:1031D000440C00205413002002494A6808788218E1
:1031E0004A6070470000002010B507497944183143
:1031F000064C7C44163404E00A68081D11448847D4
:103200000146A142F8D110BD0800000024000000D2
:1032100069FFFFFF24120000800100200000000071
:10322000A7DDFFFF2C010000AC0100000000002022
:1032300000F00DF8002801D0FFF7D6FFAFF30080B3
:103240000020AFF30080FEF7A9F800F002F801209B
:10325000704700F001B800000746384600F002F859
:10326000FBE7000080B5AFF30080024A1100182090
:10327000ABBEFBE7260002000548014603B46846E2
:1032800080F30988AFF30080AFF30080FFF7D0FF31
:10329000A5EDF5FE0148804701480047D9300008F8
:1032A000793200080000000001020304FFF7FEBFAE
:1032B000FFF7FEBFFFF7FEBFFFF7FEBFFFF7FEBF42
:1032C000FFF7FEBFFFF7FEBFFFF7FEBFFFF7FEBF32
:1032D000FFF7FEBFFFF7FEBFFFF7FEBFFFF7FEBF22
:1032E000FFF7FEBFFFF7FEBFFFF7FEBFFFF7FEBF12
:1032F000FFF7FEBFFFF7FEBFFFF7FEBFFFF7FEBF02
:10330000FFF7FEBFFFF7FEBFFFF7FEBFFFF7FEBFF1
:10331000FFF7FEBFFFF7FEBFFFF7FEBFFFF7FEBFE1
:10332000FFF7FEBFFFF7FEBFFFF7FEBFFFF7FEBFD1
:10333000FFF7FEBFFFF7FEBFFFF7FEBFFFF7FEBFC1
:10334000FFF7FEBFFFF7FEBFFFF7FEBFFFF7FEBFB1
:1033500043010001221008100524F4000A060002AF
:103360000B2240181007912C0008252D0008690435
:10337000211F1003812E0008110443572E106101F4
:1033800012AF1012A70412B70412BF04100D0902E5
:103390004300020100C0320904000001020B101EAC
:1033A0000524001001052401000104240202052463
:1033B0000600010705820308001009040100020A43
:1033C0004E1002070501027B200107058107F22844
:1033D0000044224007228107200100090744F22C03
:1033E00004441003353100085304125704125B04DF
:1033F0001003D92F0008E10412F50412E9041003A8
:10340000093000083504125D04121243100602024E
:103410000040830440577917020345F00508040370
:0634200009041A0300017B
:040000050800327944
:00000001FF
